:1000000012C22CC22BC22AC229C228C227C226C2AF
:1000100025C224C223C222C221C220C21FC21EC2C4
:100020001DC21CC21BC2FFFFFFFFFFFF7F7F7F7F40
:100030007F7F7F7FFFFFFFFF7F7F3FBF3F1F3F3FF0
:100040003F7FFFBF1F478707070727777767E7E7E8
:10005000E7C7870707070707070707070787C7F7E0
:10006000FFFFFFFFFFFFFFFFFFFFFFEFEF7F7F7F40
:100070007FFFFFFFFFFFFFFFFFBFFFFFFFFF3F7F90
:100080007F7F3F3F3F1F1F1F1F1F0F1F1F1F3F3F30
:100090003F3F3F7F7F7F7F3F3F7F7F7F7F7F7FFF30
:1000A000FFFF7F7FFFFFFEFEFEFFFFFFF8F8F0F08F
:1000B000F8F8F8F8F8F8F0E0C08000000000000060
:1000C00000000000000C0C0E1C3F0F03000404870E
:1000D000CF9FFFFEFCF8F8FCFEFEFFFFFFFFFFFDD9
:1000E000FFFFFFDFCF1F3F3F130301101C0C000079
:1000F0000000000000000080800000000000000000
:1001000000000000000000000000000000000000EF
:100110000000000000000090F8F8F8F8F8CCE0F0DB
:10012000F8F8F8FCFCFEFFFFFFFFFFFFFFFFFFFFFB
:10013000FFFFFFFFFFFFFFFFFFFFF8F0E0E0C080E1
:1001400000000080C0C0E0E0C0E0F0FCFEFEFFFF69
:10015000FFFFFFFFFFFFFFFFFFFFFFFFFFFFFFFFAF
:10016000FF3F1F090100040606060E1C1E181C187E
:10017000191901030000000746000080808000007C
:10018000000000000000000000000000000000006F
:1001900084FCF8F4FEFEF7FBFEFFFFFFFFFFFFFF0E
:1001A000FFFFFFFFFFFFFFFFFFFFFFFFFFFFFFFF5F
:1001B000FFFFFFFFFFFFFFFFFFFFFFFFFFFFFFFF4F
:1001C000FFFCFCFCFDF9F9F3FFFF5F0F0F0F0F0FB2
:1001D0001F3F3F3FFFFFFFFFFFFFFFFFFFFFFFFF4F
:1001E000F0E0C0C0C0C0C0C0C000000000000000FF
:1001F00000000003060088C8FCFCFEFFFFFFFFFEB6
:10020000F0E0F8FCFEFFFEFCF83030E0F67F3F3F08
:10021000FFFFFFFFFFFFFFFFFFFFFFFFFFFFFFFFEE
:10022000FFFFFFFFFFFFFFFFFFFFFFFFFFFFFFFFDE
:10023000FFFFFFFFFFFFFFFFFFFFFFFFFFFFFFFFCE
:10024000FFFFFFFFFFFFFFFFFFFDF0E0C00000002A
:100250000000000000000101F1FBFFFFFFFFFFFFB6
:10026000FFFFFFFFFFFFFFFFFFFE98000000000001
:10027000000080C0FE7F1FDFFFFFFFFFFFFFFFFFCB
:10028000FFFFFFFFFFFFFFFFFFFEFCFFFFFEFE7F04
:100290007E3F1F1F0F0F3D39193B7FFFFFFFFFFF01
:1002A000FFFFFFFFFFFFFFFFFFFFFFFFFFFFFFFF5E
:1002B000FFFFFFFFFFFFFFFFFFFFFFFFFFFFFFFF4E
:1002C000FFFFFFFFFFFFFFFFFFFFFFFF0F000080AB
:1002D000C0E0F0F8FCFEFFFFFFFFFFFFFFFFFFFFA6
:1002E000FFFFFFFFFFFFFFFFFFFFFFFCF0F0F0F05D
:1002F000F8FCFFFFFFFFFEFFFFFFFFFFFFFFFFFF19
:10030000FFFFFFFFFFFFFFFFFFFFFFFFFFFFFCF00F
:10031000F0F0F8F8F8F0F0E0C0C0E0F0FFFFFFFF09
:10032000FFFF7FFFDFFFFFFFFFFFFFFFFFFFFFFF7D
:10033000FFFFFFFFFFFFFFFFFFFFFFFFFFFFFFFFCD
:10034000FFFFFFFFFFFFFFFFFFFFFFFFF8F8FFFFCB
:10035000FFFFFFFFFFFFFFFFFFFFFFFFFFFFFFFFAD
:10036000FFFFFFFFFFFFFFFFFFFFFFFFFFFFFFFF9D
:10037000FFFFFFFFFFFFFF7F7F7FFFFFFFFFFFFF0D
:10038000FFFFFFFF7F7F7F7F7F7F7F7F7F7F7F7F7D
:100390007F7F7F7F7F7F7F7F7FFFFFFFFFFFFFFFED
:1003A000FFFFFFFFFFFF070707070707070707070D
:1003B00007070707030303030303030303030303FD
:1003C000030303010303030303030301010000000C
:1003D00007070707070707070707070707070703B1
:1003E00003010101010101010101010101010101FB
:1003F00001000000000000000000000000000101FA
:1004000000000000000000000000000000000000EC
:1004100000000000000000000000000000000001DB
:1004200005050707070711241FBECFE5D4E0DEBF8F
:10043000CDBF10E0A0E6B0E0E0EDF1E102C0059034
:100440000D92A036B107D9F710E0A0E6B0E001C0E8
:100450001D92A936B107E1F702D0B9C6D1CD0F93ED
:10046000CF93DF93CDB7DEB722970FB6F894DEBFF8
:100470000FBECDBF1A82198205C089819A8101966B
:100480009A83898389819A8188599A43B0F380E05D
:1004900009D400E02FE34FE760E080E074D386E208
:1004A00090E03AD6FFCFFC0184919927089590936C
:1004B00068008093670070936600609365004093C6
:1004C000610008950F931F93082F8091670090910A
:1004D0006800E0916500F091660004960995182F78
:1004E0008091670090916800E0916500F09166004E
:1004F000059609950117B8F0202F3327810F912D0C
:10050000911D281739077CF4011B80916700909199
:100510006800800F911DE0916500F09166000696DD
:1005200009958F5F01C080E099271F910F91089571
:100530000F931F93CF93DF93EC0100E010E004C012
:100540002196C0DF080F111D88818823C9F7C801D3
:10055000DF91CF911F910F9108950F931F93CF9328
:10056000DF93EC0100E010E006C02196F9018491D0
:10057000A9DF080F111D9E01FE0184918823A9F7B0
:10058000C801DF91CF911F910F910895CF93DF9311
:10059000CDB7DEB721970FB6F894DEBF0FBECDBF43
:1005A000AA9A000000000000AA98198203C089815D
:1005B0008F5F898389818830D0F321960FB6F894B4
:1005C000DEBF0FBECDBFDF91CF910895982F662378
:1005D00019F4AC98AB9A04C0613011F4AB98AC9AA2
:1005E000A898A9988FEF81BB92BBD0DF12BA08956B
:1005F0001F9387FD80E0603408F060E08093620024
:100600006093630066956695669560936400803498
:1006100010F460E002C0805461E08064D7DF109184
:100620006400186B60E0812FD1DF61E0812FCEDFA5
:100630001F9108951F93CF93DF93CDB7DEB7219716
:100640000FB6F894DEBF0FBECDBF12BA11BA9091AB
:100650006200903418F4AC98AB9A09C0AB98AC9A8D
:10066000903429F4882319F061E080E4AFDFA89A80
:10067000A99AAA9A00000000000010B3AA98198253
:1006800003C089818F5F898389818830D0F38FEFA0
:1006900081BB6091630080916200AADF809160005D
:1006A00081111095812F992721960FB6F894DEBFFE
:1006B0000FBECDBFDF91CF911F91089581E0BADFCA
:1006C00080E0B8DF99270895EF92FF920F931F9370
:1006D000CF93DF93082F8091620087FD59C080344B
:1006E00018F4AC98AB9A06C0AB98AC9A803411F46D
:1006F00061E06CDFA89AA9988FEFE82EE1BA10911B
:1007000063001770C9F1F5B2D9DFF5BAE1BAC02FAD
:10071000DD27012F11279E01002E02C0220F331F5B
:100720000A94E2F7982F922B8091600081119095A6
:1007300092BB2CDF60916300685F8091620058DF9C
:10074000BDDFF5BAE1BA28E030E0201B310B02C072
:10075000D595C7952A95E2F7282F2C2B809160001C
:100760008111209522BB12DF609163006850809157
:1007700062008F5F3DDF0BC08091600081110095AA
:1007800002BB04DF809162008F5F8093620012BA27
:10079000DF91CF911F910F91FF90EF9008953F92BD
:1007A0004F925F926F927F928F929F92AF92BF9281
:1007B000CF92DF92EF92FF920F931F93CF93DF932D
:1007C000082F8091670090916800E0916500F0919A
:1007D000660003960995F82E809167009091680055
:1007E000E0916500F091660004960995182F8091BC
:1007F000670090916800E0916500F09166000596B1
:100800000995C82E7090620030906300011708F4BB
:1008100097C0202F3327412F480F512D511D2417EA
:1008200035070CF08DC0D02ED11AC0E0D0E010E01A
:1008300008C0210F311DC90106960995C80FD11DA9
:100840001F5F2091670030916800E0916500F09192
:1008500066001D1571F7EF2CFF24C701079668E0AD
:1008600070E08ED4462E5524C49D8001C59D100D88
:10087000D49D100D11248C2D99270696080F191F51
:100880002D0D311DC90106960995A82ECC24DD2415
:10089000662449C0992733E0880F991F3A95E1F7FC
:1008A00028E0822E912C880E991EEC01CE19DF09CA
:1008B0002896BB2425C08091670090916800800F26
:1008C000911F860D911DE0916500F09166008B0DE2
:1008D000911D0995982FE814F90444F499270C2EDA
:1008E00002C0959587950A94E2F7982F8091610050
:1008F0008F3F11F4892F02C0892F8095E5DEB394D4
:10090000BA14C9F6809161008F3F11F480E001C0F4
:100910008FEFDADE60916300685F872D69DE0894EF
:10092000C11CD11C6A0C8C2DC414D50409F0B2CFA3
:100930007394632D8A2D870D5BDE80E090E002C00A
:1009400081E090E0DF91CF911F910F91FF90EF90A8
:10095000DF90CF90BF90AF909F908F907F906F90DF
:100960005F904F903F900895EF92FF921F93CF9327
:10097000DF93EC0180916200E82EFF2415C08A30DD
:1009800089F4109163008091670090916800E09174
:100990006500F091660003960995180F612F8E2D62
:1009A00027DE01C0FCDE2196FE018491882339F701
:1009B000DF91CF911F91FF90EF900895EF92FF92FA
:1009C0001F93CF93DF93EC0180916200E82EFF2408
:1009D00015C08A3089F4109163008091670090916E
:1009E0006800E0916500F091660003960995180F84
:1009F000612F8E2DFDDD01C0D2DE219688818823F6
:100A000041F7DF91CF911F91FF90EF9008950F93E1
:100A10001F93162F042F687FEBDD50DE482F212F08
:100A200033270F3F59F42770307081E090E002C007
:100A3000880F991F2A95E2F7842B0BC0277030701E
:100A400081E090E002C0880F991F2A95E2F7809517
:100A500084233ADE1F910F910895AF92BF92CF92F7
:100A6000DF92EF92FF920F931F93CF93DF93B82EF5
:100A7000A42EC22EC394462F4770D62ED41AEC2C27
:100A8000FF24642F772728E030E0C901861B970BED
:100A9000E816F9065CF42E193F098FEF90E002C0CA
:100AA000959587952A95E2F71C2D03C018E0141B35
:100AB0008FEF992702C0880F991F6A95E2F7082FD8
:100AC0006D2D8B2D95DDC0E0D0E0F8DD282F8095D1
:100AD0008023902F90959223892BF6DD2196AC16DA
:100AE00080F0F3CF88E0D80E6D2D8B2D81DD00E0F6
:100AF000E5DD8095E9DD0F5F8A2D8F5F0817C1F76F
:100B0000185F212F3327C9010896E816F90654F714
:100B10001C15F8F4E21AF30A8FEF90E002C0880F78
:100B2000991FEA94E2F7082F009588E0D80E6D2D02
:100B30008B2D5EDD10E0C2DD282F80958023902F65
:100B400090959223892BC0DD1F5F8A2D8F5F181728
:100B500091F7DF91CF911F910F91FF90EF90DF9070
:100B6000CF90BF90AF9008951F93182F8091600091
:100B7000811739F02FE34FE760E080E06EDF1093DC
:100B800060001F9108959F92AF92BF92CF92DF9223
:100B9000EF92FF920F931F93CF93DF93B82E942E73
:100BA000C22EA02EC394462F4770D62ED41AEC2CFA
:100BB000FF24642F772728E030E0C901861B970BBC
:100BC000E816F9065CF42E193F098FEF90E002C099
:100BD000959587952A95E2F71C2D03C018E0141B04
:100BE0008FEF992702C0880F991F6A95E2F7082FA7
:100BF0006D2D8B2DFDDCC0E0D0E060DD982F8FEFF8
:100C0000A81619F4892F802B03C0802F8095892383
:100C10005BDD21969C1678F0F0CF88E0D80E6D2D24
:100C20008B2DE6DC00E08A2D4FDD0F5F892D8F5F75
:100C30000817C9F7185F212F3327C9010896E8164E
:100C4000F9065CF71C1510F5E21AF30A8FEF90E035
:100C500002C0880F991FEA94E2F7F82EF09488E01A
:100C6000D80E6D2D8B2DC4DC10E028DD982F8FEF72
:100C7000A81619F4892F8F2903C08F2D80958923F9
:100C800023DD1F5F892D8F5F181779F7DF91CF91D3
:100C90001F910F91FF90EF90DF90CF90BF90AF909A
:100CA0009F9008950F93109262001092630010922B
:100CB0006400809360008FEF84BB60E08FE386DC8C
:100CC00061E08FE383DC60E080EC80DC61E080EC5D
:100CD0007DDC00E02FE34FE760E080E054DF60E080
:100CE00080E086DC0F9108952F923F924F925F92A1
:100CF0006F927F928F929F92AF92BF92CF92DF922C
:100D0000EF92FF920F931F93CF93DF93CDB7DEB790
:100D10002C970FB6F894DEBF0FBECDBF8F836887C8
:100D200049872A87C02EDD249601220F331F3E8378
:100D30002D8383E090E0821B930B9C878B873F8001
:100D4000300E262E200E9F81940F9B83901B9C8338
:100D5000E62FFA85EF0FE983E01BEA83632C722C00
:100D6000892E9E2EAA24BB24442455244FC01C2D1A
:100D7000022D0C194E2D602F862D49DEF32CFC1808
:100D80004E2D672D8F2D43DE4E2D602F882D3FDE9B
:100D90000C810C0D4E2D672D802F39DE2A81120F0C
:100DA0004E2D612F882D33DE4E2D692D802F2FDEA5
:100DB0004E2D612F862D2BDE4E2D692D8F2D27DE9A
:100DC0008B859C8597FF06C00696840D951D9C8794
:100DD0008B8711C0C5018C199D09880F991F880F39
:100DE000991FEB85FC853A96E80FF91FFC87EB8786
:100DF0000894C108D1080894A11CB11C24E030E07B
:100E0000420E531E6A947A9483949394CA14DB041A
:100E10000CF0ADCFFD8019851F190E2D20E0412F5C
:100E20006885832DB0DE20E0412F6981832DABDE04
:100E30001A851F19212F40E0622D8F81A4DE212FFA
:100E400040E0622D8B819FDE2C960FB6F894DEBFBA
:100E50000FBECDBFDF91CF911F910F91FF90EF900B
:100E6000DF90CF90BF90AF909F908F907F906F90CA
:100E70005F904F903F902F900895CF92DF92EF9226
:100E8000FF920F931F93D82EF62EC42EE22E20E051
:100E90007ADE6F2D6E0D20E04C2D8D2D74DE2E2D03
:100EA00040E06F2D8D2D6FDE2E2D40E06F2D8D2DAE
:100EB0008C0D69DE1F910F91FF90EF90DF90CF9026
:100EC00008952F923F924F925F926F927F928F92EE
:100ED0009F92AF92BF92CF92DF92EF92FF920F93C9
:100EE0001F93CF93DF93CDB7DEB724970FB6F89457
:100EF000DEBF0FBECDBFC82ED62EE42EF22E098344
:100F0000841749F4261710F4F62ED22EFD18098105
:100F10002F2D40E00AC0621761F4481710F4EC2C42
:100F2000C42EEC18098120E04E2D6D2D8C2D2BDE6A
:100F3000DAC0622F77274D2D55272E2D3327281BFA
:100F40003109CB01841B950B8217930734F4461BA0
:100F5000570B421753070CF464C0EC1430F48E2D79
:100F6000EC2CC82E8F2DFD2CD82EEC184F2C552490
:100F70006D2C77244201861897082E2D33273C8349
:100F80002B8388EC90E0FC018E9EC0018F9E900D1B
:100F90009E9E900D1124B901F3D01B01DA82AA2480
:100FA000BB244A2D8A2D9927289E9001299E300D19
:100FB000389E300D1124C90168EC70E0E1D01D2D80
:100FC000160FC90168EC70E0DBD08436910514F08F
:100FD0001F5F04C08D599F4F0CF411508C2D840F4E
:100FE0000981212F482F6A816CDF2B813C81821679
:100FF000930624F0DF1410F41F5F0BC0C3018419A3
:101000009509EB81FC818E179F071CF0FD1408F4F5
:1010100011501A830894A11CB11CEA1408F463C08F
:10102000C0CFFD1430F48E2DEC2CC82E8F2DFD2C4E
:10103000D82EFD184E2C55246C2C7724420186188E
:1010400097082F2D33273C832B8388EC90E0FC01FD
:101050008E9EC0018F9E900D9E9E900D1124B90111
:101060008FD01B01CA82AA24BB244A2D8A2D99271E
:10107000289E9001299E300D389E300D1124C90103
:1010800068EC70E07DD01C2D160FC90168EC70E093
:1010900077D08436910514F01F5F04C08D599F4F9F
:1010A0000CF411506D2D640F0981262F412F8A8178
:1010B00008DF2B813C818216930624F0CE1410F4B5
:1010C0001F5F0BC0C30184199509EB81FC818E174A
:1010D0009F071CF0EC1408F411501A830894A11C0B
:1010E000B11CFA1410F624960FB6F894DEBF0FBEAA
:1010F000CDBFDF91CF911F910F91FF90EF90DF90C7
:10110000CF90BF90AF909F908F907F906F905F90A7
:101110004F903F902F900895BF92CF92DF92EF9221
:10112000FF920F931F93CF93DF937C01CC24DD2498
:1011300019C0F8010F5F1F4FB4906C2D8C2F58DA37
:101140008B2DC2DA2196C038D10599F780E890E05E
:10115000E80EF91E88E090E0C80ED91E90E4C9168A
:10116000D10421F08701C0E0D0E0E3CFDF91CF913F
:101170001F910F91FF90EF90DF90CF90BF90089557
:1011800097FB092E07260AD077FD04D00CD006D095
:1011900000201AF4709561957F4F0895F6F79095A9
:1011A00081959F4F0895AA1BBB1B51E107C0AA1F41
:1011B000BB1FA617B70710F0A61BB70B881F991FF8
:1011C0005A95A9F780959095BC01CD010895FFCF60
:00000001FF
