:10000000E3C4FDC4FCC4FBC4FAC4F9C4F8C4F7C417
:10001000F6C4F5C4F4C4F3C4F2C4F1C4F0C4EFC42C
:10002000EEC4EDC4ECC422080A0E206004020506EA
:10003000070809020303050802040204070407076E
:100040000707070707070202070707080E0908083E
:100050000807070908020708070B08090709090725
:100060000808090D07080804040406080307070622
:100070000707050707020306020A07070707050621
:100080000507070B06070505010507080000000026
:1000900000000000FEFE18181E1E001E1E000000BC
:1000A000000090F89E90F89E1C00001C0000183C78
:1000B00026FF66CC88040C183C180C041C221CC0BB
:1000C000308E408000001804000C100C80CC7E7232
:1000D000F2DE0C80000C1C1010101C0C1C101E1EDC
:1000E0000000F0FC061C7CC006FCF0C07C1C141454
:1000F0000E14140000000000606060FCFC60606092
:100100000000000C0C00000000005838C0C0C0C047
:10011000000000000000181800C038061804000095
:10012000F8FC0E060EFCF8040C1C181C0C04180C31
:10013000FEFE00001C1C181C86C6663E1C181C1CFB
:1001400018181818888C062626FEDC040C1C1818B3
:100150000C04C0E0B88CFEFE80040404041C1C04E3
:10016000707E3E3636F6C60C1C1818180C04F8FCC7
:100170006E6666EECC040C1818181C0C060606E613
:10018000761E0600001C1C0000009CFE666666FED3
:100190009C0C1C1818181C0C3C7E666666FCF80C3F
:1001A0001C18181C0C0418181818181858386060F7
:1001B000F0F098980C0000000004040CD8D8D8D8AF
:1001C000D8D8D8000000000000000C9898F0F0602B
:1001D000600C040400000000080C06C6E6763C181B
:1001E0000000001818000000E03008C4F63A1A1A9F
:1001F000F2FA7E0408F00C30604C9C98988C9C9C21
:1002000090484C2000C0F8BE86BEF8C000181C0400
:10021000040404041C18FEFE66666666FEDC1C1CF4
:10022000181818181C0CF8FC0E06060E9C08040C76
:100230001C18181C0C04FEFE0606060EFCF81C1CFE
:100240001818181C0C04FEFE66666666661C1C18F0
:1002500018181818FEFE66666666061C1C0000006C
:100260000000F8FC0E0606C6CEDCC8040C1C1818EC
:1002700018180C04FEFE60606060FEFE1C1C00008E
:1002800000001C1CFEFE1C1C8080000000FEFE0CFA
:100290001C1818181C0CFEFE603078EC86021C1C22
:1002A000000000041C18FEFE00000000001C1C18CA
:1002B00018181818FEFE0E7CE000E07C0EFEFE1CF6
:1002C0001C00000C1C0C00001C1CFEFE1C78E080B6
:1002D000FEFE1C1C0000040C1C1CF8FC0E0606068E
:1002E0000EFCF8040C1C1818181C0C04FEFE6666A4
:1002F000667E3C1C1C0000000000F8FC0E06860612
:100300000EFCF8040C1C18181C0C1C24FEFE66665F
:10031000E6E6BE1C001C1C0000000C1C18103C7EF5
:10032000666666EECC0C1C1818181C0C060606FE39
:10033000FE0606060000001C1C000000FEFE000079
:100340000000FEFE040C1C18181C0C04021EFCE02D
:1003500000E0FC1E020000001C1C1C00000006FE49
:10036000F800F0FE0EFEF000F8FE0600001C1C1C5B
:100370000000001C1C1C0000060EF8F0F80E061809
:100380001C0400041C18060E38F0F0380E0600009D
:10039000001C1C000000060686E6761E0E06181CD1
:1003A0001C1818181818FEFE0606FCFCC0C00638FB
:1003B000C000000004180606FEFEC0C0FCFC203889
:1003C0000E0E3820000000000000000000000000B9
:1003D0000000808080808080808002060400000011
:1003E0001098D858F8F0000C1C18180C1C10FEFEC1
:1003F000301838F0E01C1C0C181C0C04E0F0181825
:100400003830040C18181C0CE0F0381830FEFE04CC
:100410000C1C180C1C1CE0F0D8D8D8F0E0040C1808
:100420001818180818FCFE1A1A001C1C0000E0F02E
:10043000381830F8F864ECDCD8CCFC7CFEFE3018C0
:1004400018F8F01C1C0000001C1CFAFA1C1C00FA16
:10045000FAC0FC7CFEFEE0F098081C1C00041C188E
:10046000FEFE1C1CF8F81018F8F01818F8F01C1C08
:1004700000001C1C00001C1CF8F8301818F8F01CB8
:100480001C0000001C1CE0F0381838F0E0040C1CC4
:10049000181C0C04F8F8301838F0E0FCFC0C181CA0
:1004A0000C04E0F0381830F8F8040C1C180CFCFCB4
:1004B000F8F83018181C1C00000070F8D8D8D89034
:1004C000081818181C0C18FCFE1818000C1C18181A
:1004D000F8F8000000F8F80C1C18180C1C1C38F870
:1004E000C000C0F83800001C1C1C000018F8E00018
:1004F000F038F000E0F81800001C1C0C000C1C1C6C
:1005000000001838E0E03818181C04041C1818F80B
:10051000E000E0F8180084FCF83C04001898D87853
:10052000381C1C18181880FC7E0606007CFCC0C015
:10053000FEFC06067EFC80C0C0FC7C006030307093
:1005400060603000000000000000FE0202020202B3
:1005500002FE1C1010101010101C1A4C060D20600A
:10056000000103060509090103030507020301034E
:100570000503050506050505050501020606060431
:100580000A0807070807060808030408070B0808F5
:10059000060808050708070B0808070303020606F4
:1005A0000205050406040405060302060309060500
:1005B00006060404030606090507050301030506EC
:1005C000FE100E000E000000D0785650F8561800AD
:1005D000001800001C12FF22C408103810080C126A
:1005E0008C40300886408000100800000008100889
:1005F000C0203CD28A46301000081010100810109D
:1006000010080E00F00C02083040020CF0403008D8
:1006100014083E08140000000000202020FC2020C8
:1006200020000000080000000000503080808000A2
:100630000000001000F806180000FC020202FC088E
:100640001010100804FE00101810040282423C1022
:100650001810101804022232CC1010101008C0A07C
:10066000908CFE80000000001800000C0A12E210BE
:1006700010100800F0281412E208101010080402EC
:1006800002F20E00001800008C5262528C0810100A
:1006900010083C4242C27C101008000010101000EC
:1006A000503020505050888800000000000050500A
:1006B00050505050000000000000888850505020DA
:1006C0000000000000000CC2221C00100000F00816
:1006D000E4120A0A927A04F81820489090888890C8
:1006E00048200080784658608000101810000010E4
:1006F000181002FE2222223CC01018101010100800
:10070000F804020202048E0008101010080002FE15
:100710000202020204F8101810101010080002FE65
:1007200022227206001018101010100802FE222259
:100730007206101810000000F80402020224EE20D5
:10074000000810101010080002FE22202022FE02D5
:10075000101810000010181002FE021018100002ED
:10076000FE021810080002FE22508806020210182D
:1007700010000018101002FE0200000000101810F7
:100780001010100802FE0638C000E01806FE021025
:100790001810000018000010181002FE08106082E7
:1007A000FE021018100000001800F80402020202F5
:1007B00004F8000810101010080002FE2222221C6B
:1007C000101810000000F8040202020204F80008E9
:1007D00010103050484002FE2222E21C0000101887
:1007E0001000000810100C122222C6181010100859
:1007F000060202FE0202060000101810000002FEAF
:1008000002000002FE020008101010100800021E74
:10081000E200E21E0200000018000000021EE2805A
:10082000621EE280720E0200000018000000180034
:10083000000002068A70708A06021018100000106C
:10084000181002063AC0300A060200001018100004
:100850000000008642320A0682101810101010188C
:10086000FE020278404006F80000001802FE4078C0
:10087000100C02020C10000000000000000000003C
:10088000000080808080808004080000A05050E03C
:10089000000810101810FE201010E00810101008AA
:1008A000E010103008101008E0101022FE000810B0
:1008B00010081810E05050600810100810FC1202C8
:1008C000101810006090907010689090906002FE78
:1008D0002010E00010181000181010F2001018106E
:1008E00010F2807802FE40B01000101810001810AE
:1008F00002FE0010181010F02010E02010E0001090
:10090000181000181000181010F02010E000101837
:1009100010001810E0101010E0081010100810F06F
:10092000201010E080F888101008E0101020F0006F
:1009300008101088F88010F0201010181000605077
:1009400090B01810100810FC1000181010F00010D3
:10095000F00000081010181030D000C03010000057
:100960001800000010F00090F010C03010000018C7
:100970000000180000001030C030101018001810CF
:1009800010709000D0301080804830080000301087
:10099000D03010101810101840BC02003840FE78FB
:1009A00002BC404038008040C08040000000000091
:1009B000FC04040404FC181010101018546573741F
:1009C00020466F6E7473000011241FBECFE5D4E083
:1009D000DEBFCDBF10E0A0E6B0E0E6E6F7E102C082
:1009E00005900D92A437B107D9F710E0A4E7B0E065
:1009F00001C01D92AD37B107E1F702D0B3C600CBFD
:100A0000EF920F93CF93DF93CDB7DEB722970FB658
:100A1000F894DEBF0FBECDBF1A82198205C089814E
:100A20009A8101969A83898389819A8188599A4308
:100A3000B0F380E036D44FEF62E575E086E290E0F7
:100A400035D06AE08FE0D3D08CEB99E08CD28FEF79
:100A5000E82E08E024E145E765E085E044D44FEF67
:100A600062E575E08AE595E021D06EE185E0BFD0D2
:100A700080E690E0A2D20FEF22E34AE762E385E04E
:100A80001FD505E02AE04AE062E384E12CD42AE0A5
:100A90004AE062E38CE327D42AE04AE062E384E69A
:100AA00022D4FFCFFC0184919927089590937C0074
:100AB00080937B0070937A00609379004093750077
:100AC00008950F931F93082F80917B0090917C00D5
:100AD000E0917900F0917A0004960995182F8091A1
:100AE0007B0090917C00E0917900F0917A0005966E
:100AF00009950117B8F0202F3327810F912D911DF3
:100B0000281739077CF4011B80917B0090917C00B1
:100B1000800F911DE0917900F0917A000696099579
:100B20008F5F01C080E099271F910F9108950F9367
:100B30001F93CF93DF93EC0100E010E004C02196F7
:100B4000C0DF080F111D88818823C9F7C801DF9114
:100B5000CF911F910F9108950F931F93CF93DF9320
:100B6000EC0100E010E006C02196F9018491A9DFB4
:100B7000080F111D9E01FE0184918823A9F7C80169
:100B8000DF91CF911F910F910895CF93DF93CDB750
:100B9000DEB721970FB6F894DEBF0FBECDBFAA9A7D
:100BA000000000000000AA98198203C089818F5FAD
:100BB000898389818830D0F321960FB6F894DEBFFF
:100BC0000FBECDBFDF91CF910895982F662319F402
:100BD000AC98AB9A04C0613011F4AB98AC9AA89869
:100BE000A9988FEF81BB92BBD0DF12BA08951F93F3
:100BF00087FD80E0603408F060E0809376006093C9
:100C0000770066956695669560937800803410F459
:100C100060E002C0805461E08064D7DF109178000A
:100C2000186B60E0812FD1DF61E0812FCEDF1F9153
:100C300008951F93CF93DF93CDB7DEB721970FB6FB
:100C4000F894DEBF0FBECDBF12BA11BA90917600F4
:100C5000903418F4AC98AB9A09C0AB98AC9A903425
:100C600029F4882319F061E080E4AFDFA89AA99AFB
:100C7000AA9A00000000000010B3AA98198203C0CD
:100C800089818F5F898389818830D0F38FEF81BB21
:100C90006091770080917600AADF809174008111C5
:100CA0001095812F992721960FB6F894DEBF0FBEBD
:100CB000CDBFDF91CF911F91089581E0BADF80E031
:100CC000B8DF99270895EF92FF920F931F93CF9368
:100CD000DF93082F8091760087FD59C0803418F487
:100CE000AC98AB9A06C0AB98AC9A803411F461E032
:100CF0006CDFA89AA9988FEFE82EE1BA10917700DF
:100D00001770C9F1F5B2D9DFF5BAE1BAC02FDD2706
:100D1000012F11279E01002E02C0220F331F0A94BB
:100D2000E2F7982F922B809174008111909592BBDD
:100D30002CDF60917700685F8091760058DFBDDF1F
:100D4000F5BAE1BA28E030E0201B310B02C0D5959E
:100D5000C7952A95E2F7282F2C2B809174008111DA
:100D6000209522BB12DF6091770068508091760059
:100D70008F5F3DDF0BC0809174008111009502BB35
:100D800004DF809176008F5F8093760012BADF9146
:100D9000CF911F910F91FF90EF9008953F924F9246
:100DA0005F926F927F928F929F92AF92BF92CF92FB
:100DB000DF92EF92FF920F931F93CF93DF93082F51
:100DC00080917B0090917C00E0917900F0917A0015
:100DD00003960995F82E80917B0090917C00E0911C
:100DE0007900F0917A0004960995182F80917B0084
:100DF00090917C00E0917900F0917A000596099538
:100E0000C82E7090760030907700011708F497C0D4
:100E1000202F3327412F480F512D511D24173507FF
:100E20000CF08DC0D02ED11AC0E0D0E010E008C088
:100E3000210F311DC90106960995C80FD11D1F5FED
:100E400020917B0030917C00E0917900F0917A0054
:100E50001D1571F7EF2CFF24C701079668E070E0BD
:100E60005AD4462E5524C49D8001C59D100DD49D95
:100E7000100D11248C2D99270696080F191F2D0D82
:100E8000311DC90106960995A82ECC24DD246624BF
:100E900049C0992733E0880F991F3A95E1F728E078
:100EA000822E912C880E991EEC01CE19DF0928960E
:100EB000BB2425C080917B0090917C00800F911F06
:100EC000860D911DE0917900F0917A008B0D911DB6
:100ED0000995982FE814F90444F499270C2E02C0C0
:100EE000959587950A94E2F7982F809175008F3F2A
:100EF00011F4892F02C0892F8095E5DEB394BA14CE
:100F0000C9F6809175008F3F11F480E001C08FEF2A
:100F1000DADE60917700685F872D69DE0894C11C76
:100F2000D11C6A0C8C2DC414D50409F0B2CF739473
:100F3000632D8A2D870D5BDE80E090E002C081E0AA
:100F400090E0DF91CF911F910F91FF90EF90DF9094
:100F5000CF90BF90AF909F908F907F906F905F9059
:100F60004F903F900895EF92FF921F93CF93DF939E
:100F7000EC0180917600E82EFF2415C08A3089F4B8
:100F80001091770080917B0090917C00E091790036
:100F9000F0917A0003960995180F612F8E2D27DEA8
:100FA00001C0FCDE2196FE018491882339F7DF9190
:100FB000CF911F91FF90EF900895EF92FF921F93B2
:100FC000CF93DF93EC0180917600E82EFF2415C0CB
:100FD0008A3089F41091770080917B0090917C0099
:100FE000E0917900F0917A0003960995180F612F2E
:100FF0008E2DFDDD01C0D2DE21968881882341F748
:10100000DF91CF911F91FF90EF9008950F931F9361
:10101000162F042F687FEBDD50DE482F212F33275A
:101020000F3F59F42770307081E090E002C0880FC4
:10103000991F2A95E2F7842B0BC02770307081E04E
:1010400090E002C0880F991F2A95E2F780958423CB
:101050003ADE1F910F910895AF92BF92CF92DF9227
:10106000EF92FF920F931F93CF93DF93B82EA42E8E
:10107000C22EC394462F4770D62ED41AEC2CFF24D0
:10108000642F772728E030E0C901861B970BE8160C
:10109000F9065CF42E193F098FEF90E002C0959598
:1010A00087952A95E2F71C2D03C018E0141B8FEFDB
:1010B000992702C0880F991F6A95E2F7082F6D2DB6
:1010C0008B2D95DDC0E0D0E0F8DD282F80958023C2
:1010D000902F90959223892BF6DD2196AC1680F007
:1010E000F3CF88E0D80E6D2D8B2D81DD00E0E5DD9E
:1010F0008095E9DD0F5F8A2D8F5F0817C1F7185FB4
:10110000212F3327C9010896E816F90654F71C1554
:10111000F8F4E21AF30A8FEF90E002C0880F991FEB
:10112000EA94E2F7082F009588E0D80E6D2D8B2DFC
:101130005EDD10E0C2DD282F80958023902F9095F2
:101140009223892BC0DD1F5F8A2D8F5F181791F7BF
:10115000DF91CF911F910F91FF90EF90DF90CF9093
:10116000BF90AF9008951F93182F8091740081173E
:1011700039F02FE34FE760E080E06EDF10937400FA
:101180001F9108959F92AF92BF92CF92DF92EF92FC
:10119000FF920F931F93CF93DF93B82E942EC22EFE
:1011A000A02EC394462F4770D62ED41AEC2CFF24C1
:1011B000642F772728E030E0C901861B970BE816DB
:1011C000F9065CF42E193F098FEF90E002C0959567
:1011D00087952A95E2F71C2D03C018E0141B8FEFAA
:1011E000992702C0880F991F6A95E2F7082F6D2D85
:1011F0008B2DFDDCC0E0D0E060DD982F8FEFA816CE
:1012000019F4892F802B03C0802F809589235BDD03
:1012100021969C1678F0F0CF88E0D80E6D2D8B2D9E
:10122000E6DC00E08A2D4FDD0F5F892D8F5F081708
:10123000C9F7185F212F3327C9010896E816F90668
:101240005CF71C1510F5E21AF30A8FEF90E002C06C
:10125000880F991FEA94E2F7F82EF09488E0D80EF0
:101260006D2D8B2DC4DC10E028DD982F8FEFA81694
:1012700019F4892F8F2903C08F2D8095892323DDB1
:101280001F5F892D8F5F181779F7DF91CF911F911D
:101290000F91FF90EF90DF90CF90BF90AF909F9015
:1012A00008950F93109276001092770010927800B4
:1012B000809374008FEF84BB60E08FE386DC61E095
:1012C0008FE383DC60E080EC80DC61E080EC7DDC3F
:1012D00000E02FE34FE760E080E054DF60E080E073
:1012E00086DC0F9108952F923F924F925F926F92FA
:1012F0007F928F929F92AF92BF92CF92DF92EF92A6
:10130000FF920F931F93CF93DF93CDB7DEB72C9748
:101310000FB6F894DEBF0FBECDBF8F8368874987B5
:101320002A87C02EDD249601220F331F3E832D8392
:1013300083E090E0821B930B9C878B873F80300E6D
:10134000262E200E9F81940F9B83901B9C83E62F5B
:10135000FA85EF0FE983E01BEA83632C722C892E58
:101360009E2EAA24BB24442455244FC01C2D022D9C
:101370000C194E2D602F862D49DEF32CFC184E2DB6
:10138000672D8F2D43DE4E2D602F882D3FDE0C8183
:101390000C0D4E2D672D802F39DE2A81120F4E2D18
:1013A000612F882D33DE4E2D692D802F2FDE4E2D9F
:1013B000612F862D2BDE4E2D692D8F2D27DE8B85FF
:1013C0009C8597FF06C00696840D951D9C878B878C
:1013D00011C0C5018C199D09880F991F880F991F8D
:1013E000EB85FC853A96E80FF91FFC87EB8708949C
:1013F000C108D1080894A11CB11C24E030E0420EC1
:10140000531E6A947A9483949394CA14DB040CF068
:10141000ADCFFD8019851F190E2D20E0412F688565
:10142000832DB0DE20E0412F6981832DABDE1A854C
:101430001F19212F40E0622D8F81A4DE212F40E073
:10144000622D8B819FDE2C960FB6F894DEBF0FBE07
:10145000CDBFDF91CF911F910F91FF90EF90DF9063
:10146000CF90BF90AF909F908F907F906F905F9044
:101470004F903F902F900895CF92DF92EF92FF927E
:101480000F931F93D82EF62EC42EE22E20E07ADE84
:101490006F2D6E0D20E04C2D8D2D74DE2E2D40E035
:1014A0006F2D8D2D6FDE2E2D40E06F2D8D2D8C0D2F
:1014B00069DE1F910F91FF90EF90DF90CF9008951C
:1014C0002F923F924F925F926F927F928F929F9254
:1014D000AF92BF92CF92DF92EF92FF920F931F9342
:1014E000CF93DF93CDB7DEB724970FB6F894DEBF66
:1014F0000FBECDBFC82ED62EE42EF22E0983841740
:1015000049F4261710F4F62ED22EFD1809812F2D3E
:1015100040E00AC0621761F4481710F4EC2CC42EA6
:10152000EC18098120E04E2D6D2D8C2D2BDEDAC0BC
:10153000622F77274D2D55272E2D3327281B310954
:10154000CB01841B950B8217930734F4461B570B72
:10155000421753070CF464C0EC1430F48E2DEC2CBD
:10156000C82E8F2DFD2CD82EEC184F2C55246D2C09
:1015700077244201861897082E2D33273C832B832E
:1015800088EC90E0FC018E9EC0018F9E900D9E9E87
:10159000900D1124B901BFD01B01DA82AA24BB240B
:1015A0004A2D8A2D9927289E9001299E300D389E1C
:1015B000300D1124C90168EC70E0ADD01D2D160F5F
:1015C000C90168EC70E0A7D08436910514F01F5F64
:1015D00004C08D599F4F0CF411508C2D840F09813C
:1015E000212F482F6A816CDF2B813C818216930664
:1015F00024F0DF1410F41F5F0BC0C3018419950998
:10160000EB81FC818E179F071CF0FD1408F411502C
:101610001A830894A11CB11CEA1408F463C0C0CF5B
:10162000FD1430F48E2DEC2CC82E8F2DFD2CD82ED1
:10163000FD184E2C55246C2C7724420186189708EF
:101640002F2D33273C832B8388EC90E0FC018E9E6A
:10165000C0018F9E900D9E9E900D1124B9015BD00C
:101660001B01CA82AA24BB244A2D8A2D9927289EB1
:101670009001299E300D389E300D1124C90168EC6F
:1016800070E049D01C2D160FC90168EC70E043D002
:101690008436910514F01F5F04C08D599F4F0CF4E0
:1016A00011506D2D640F0981262F412F8A8108DF8B
:1016B0002B813C818216930624F0CE1410F41F5F18
:1016C0000BC0C30184199509EB81FC818E179F071C
:1016D0001CF0EC1408F411501A830894A11CB11CDE
:1016E000FA1410F624960FB6F894DEBF0FBECDBFE5
:1016F000DF91CF911F910F91FF90EF90DF90CF90EE
:10170000BF90AF909F908F907F906F905F904F9021
:101710003F902F90089597FB092E07260AD077FD5A
:1017200004D00CD006D000201AF4709561957F4F3C
:101730000895F6F7909581959F4F0895AA1BBB1BBE
:1017400051E107C0AA1FBB1FA617B70710F0A61BC1
:10175000B70B881F991F5A95A9F780959095BC01E2
:06176000CD010895FFCF4A
:101766007777772E736369656E636570726F672E20
:04177600636F6D0030
:00000001FF
